:020000040000FA
:100000000C9463000C948B000C948B000C948B006C
:100010000C948B000C948B000C948B000C94DF06DA
:100020000C948B000C948B000C948B000C948B0024
:100030000C948B000C948B000C948B000C948B0014
:100040000C9495060C948B000C948B000C948B00F4
:100050000C948B000C948B000C948B000C948B00F4
:100060000C948B000C948B000000000024002700EF
:100070002A000000000023002600290000000008DC
:10008000000201000003040700000000000000005F
:10009000010204081020408001020408102001021F
:1000A0000408102000000000250028002B00040494
:1000B0000404040404040202020202020303030310
:1000C00003030200340811241FBECFEFD8E0DEBFC7
:1000D000CDBF11E0A0E0B1E0EAE1F4E102C005909B
:1000E0000D92A434B107D9F721E0A4E4B1E001C036
:1000F0001D92AA37B207E1F710E0C3E6D0E004C0D2
:100100002197FE010E94F609C236D107C9F70E9465
:1001100061070C940B0A0C940000833081F028F4E2
:10012000813099F08230A9F008958730A9F08830A5
:10013000C9F08430B1F4809180008F7D03C080913C
:1001400080008F7780938000089584B58F7784BD79
:10015000089584B58F7DFBCF8091B0008F77809319
:10016000B00008958091B0008F7DF9CFCF93DF93D9
:10017000282F30E0F901E458FF4F8491F901E0574E
:10018000FF4FD491F901E255FF4FC491CC23A1F068
:1001900081110E948D00EC2FF0E0EE0FFF1FEE5852
:1001A000FF4FA591B491EC91ED2381E090E009F42B
:1001B00080E0DF91CF91089580E090E0FACF1F9327
:1001C000CF93DF93282F30E0F901E458FF4F84915B
:1001D000F901E057FF4FD491F901E255FF4FC49167
:1001E000CC23A9F0162F81110E948D00EC2FF0E096
:1001F000EE0FFF1FEC55FF4FA591B4918FB7F89408
:10020000EC91111108C0D095DE23DC938FBFDF91F4
:10021000CF911F910895DE2BF8CFCF93DF9390E01D
:10022000FC01E057FF4F249182559F4FFC018491C0
:100230008823D1F090E0880F991FFC01E859FF4F07
:10024000A591B491FC01EC55FF4FC591D49161117A
:100250000EC09FB7F8948C91E22FE0958E238C937B
:100260002881E223E8839FBFDF91CF9108958FB764
:10027000F894EC91E22BEC938FBFF6CF4F925F9204
:100280006F927F928F929F92AF92BF92CF92DF92A6
:10029000EF92FF920F931F93CF93DF9300D000D084
:1002A0001F92CDB7DEB78C012A013B018091060178
:1002B0008830C9F08F3F09F47FC00F900F900F90E6
:1002C0000F900F90DF91CF911F910F91FF90EF90C2
:1002D000DF90CF90BF90AF909F908F907F906F9066
:1002E0005F904F900895E2ECF0E084918D8387FD5C
:1002F000E4CF61E088E00E940D018D81882321F028
:100300009D81923009F05CC14801B12CA12C60E0C4
:1003100072E18AE790E0A50198010E94CC09298347
:100320003A834B835C8369017A0181E0C81AD10862
:10033000E108F1089FEFC916D104E104F10409F0C6
:100340000CF413C160E472E48FE090E0A501980121
:100350000E94CC0969017A0181E0C81AD108E1083C
:10036000F1089D81923009F098C08FEFC816D10432
:10037000E104F10409F00CF4DDC160E970ED83E003
:1003800090E0A50198010E94CC0969017A0191E0F1
:10039000C91AD108E108F1088FEFC816D104E104A9
:1003A000F10411F00CF0A3C183E09091B100987FAB
:1003B000892B8093B100E1C088E080930601E2ECD4
:1003C000F0E094919D839F3F09F477CF913029F11C
:1003D00058F0923009F43FC08D8187FD6ECF61E007
:1003E00088E00E940D018CCF14BC15BC84B58260DE
:1003F00084BD85B5816085BDE6EBF0E0E491F0E079
:10040000EE0FFF1FEC55FF4F85919491E8E9F0E066
:10041000E491E09355011D826CCF10928000109200
:1004200081008091810088608093810080918100AB
:10043000816080938100E6EBF0E0E491F0E0EE0F64
:10044000FF1FEC55FF4F85919491E8E9F0E0E491AE
:10045000E09354014ECF1092B0001092B100809101
:10046000B00082608093B0008091B1008160809381
:10047000B100E6EBF0E0E491F0E0EE0FFF1FEC5589
:10048000FF4F859194919093530180935201E8E935
:10049000F0E0E491E09351012CCF9FEFC916D10415
:1004A000E104F10409F00CF489C068E478EE81E01D
:1004B00090E0A50198010E94CC0969017A0181E0D0
:1004C000C81AD108E108F1089D81992309F428C1CF
:1004D0009FEFC916D104E104F10409F00CF41EC128
:1004E00062E17AE780E090E0A50194010E94CC09E6
:1004F00069017A0181E0C81AD108E108F1089D81FB
:10050000992309F4EBC08FEFC816D104E104F1047C
:1005100011F008F0BFC086E048CF64E274EF80E0DD
:1005200090E0A50194010E94CC0969017A0181E063
:10053000C81AD108E108F10885E09FEFC916D10477
:10054000E104F10409F008F430CF62E17AE780E0D9
:1005500090E0A50194010E94CC0969017A0191E023
:10056000C91AD108E108F108CECF81E09D8191112F
:100570001CCF95B5987F892B85BD2FEF3FEFA90143
:10058000411451046104710409F043C09D8191300C
:1005900009F45EC0923009F46DC091118ECEC7BCD3
:1005A00020935E0130935F0140936001509361019D
:1005B00080916E00826080936E007FCE82E0D6CF05
:1005C000B12CA12C60E072E18AE790E0A5019801CE
:1005D0000E94CC0969017A0181E0C81AD108E108BA
:1005E000F108C114D10491E0E906F10404F591E0A9
:1005F0008D81813011F680918100887F892B8093D5
:1006000081002FEF3FEFA9014114510461047104EF
:10061000F9F0D801AA0FBB1FA30192010E94EB09B8
:1006200028EE33E040E050E00E94AA09AFCF68E432
:1006300078EE81E090E0A50198010E94CC09690163
:100640007A0181E0C81AD108E108F10893E0D0CF1F
:10065000D0928900C092880020935A0130935B01A8
:1006600040935C0150935D0180916F0082608093A4
:100670006F0023CEC092B3002093560130935701F0
:10068000409358015093590180917000826080938B
:10069000700013CEC980DA80EB80FC809AE0F5947C
:1006A000E794D794C7949A95D1F791E0C91AD108E5
:1006B000E108F10887E079CEC980DA80EB80FC8020
:1006C0008AE0F594E794D794C7948A95D1F791E09E
:1006D000C91AD108E108F10885E04BCF8FEFC816A1
:1006E000D104E104F10409F038F784E042CF68E472
:1006F00078EE81E090E0A50198010E94CC096901A3
:100700007A0191E0C91AD108E108F1088FEFC81603
:10071000D104E104F10411F00CF0FFCE84E045CEE9
:100720008FEFC816D104E104F10411F00CF0D8CE1B
:1007300083E01FCF82E039CE3FB7F89480914D011E
:1007400090914E01A0914F01B091500126B5A89B08
:1007500005C02F3F19F00196A11DB11D3FBFBA2F53
:10076000A92F982F8827BC01CD01620F711D811D13
:10077000911D42E0660F771F881F991F4A95D1F798
:1007800008958F929F92AF92BF92CF92DF92EF9295
:10079000FF926B017C010E949C034B015C01C11420
:1007A000D104E104F104B9F00E949C0368197909AD
:1007B0008A099B09683E73408105910580F321E019
:1007C000C21AD108E108F10888EE880E83E0981E6D
:1007D000A11CB11CE4CFFF90EF90DF90CF90BF90B1
:1007E000AF909F908F900895AF92BF92CF92DF927B
:1007F000EF92FF920F931F93CF93DF936C017B01D6
:100800008B01040F151FEB015E01AE18BF08C01766
:10081000D10759F06991D601ED91FC910190F081D9
:10082000E02DC6010995892B79F7C501DF91CF919C
:100830001F910F91FF90EF90DF90CF90BF90AF90FE
:100840000895089590E080E008954091440150910A
:100850004501052E000C660B770B809100019091ED
:1008600001010E943E016091460170914701072EEF
:10087000000C880B990B0C94C103CF92DF92EF927E
:10088000FF92C0904601D09047010D2C000CEE085D
:10089000FF08B701A60180910001909101010E941B
:1008A0003E01C701B601FF90EF90DF90CF900C940E
:1008B000C1038F929F92AF92BF920F931F93CF93DA
:1008C000DF93CDB7DEB7A1970FB6F894DEBF0FBEAA
:1008D000CDBF19A2423008F44AE08E010F5D1F4FD0
:1008E000842E912CB12CA12CA50194010E94AA095F
:1008F000E62FB901CA01EA3044F5E05DD801EE9374
:100900008D01232B242B252B79F790E080E0109785
:1009100069F0FD0101900020E9F73197AF014A1B12
:100920005B0BBD0182E691E00E94F403A1960FB635
:10093000F894DEBF0FBECDBFDF91CF911F910F9115
:10094000BF90AF909F908F900895E95CD7CFFC0146
:1009500001900020E9F73197AF01481B590BBC010A
:1009600082E691E00C94F403CF93DF93EC0160E016
:100970008E810E94DF0061E08E810E94DF0060E0D6
:100980008E810E94DF008BE891E00197F1F7DF9103
:10099000CF910895CF92DF92EF92FF920F931F9322
:1009A000CF93DF936C017C0187E0E80EF11CD0E06F
:1009B000C0E0062F10E0B8010C2E02C075956795B7
:1009C0000A94E2F76170F70181917F010E94DF00D4
:1009D0002196C430D10579F7C601DF91CF911F91DF
:1009E0000F91FF90EF90DF90CF900C94B404CF92D2
:1009F000DF92EF92FF920F931F93CF93DF93EC015F
:100A0000F62E642F8C810E94DF008D818F3F19F0BC
:100A100060E00E94DF000F2D10E08F8584FF25C06D
:100A20006E0187E0C80ED11CF12CE12CB8010E2C10
:100A300002C0759567950A94E2F76170F60181919D
:100A40006F010E94DF00FFEFEF1AFF0A88E0E8164F
:100A5000F10461F7CE01DF91CF911F910F91FF90CB
:100A6000EF90DF90CF900C94B404B80184E07595BA
:100A700067958A95E1F7CE010E94CA046F2DCE01D9
:100A8000DF91CF911F910F91FF90EF90DF90CF906A
:100A90000C94CA0440E0682F82E691E00C94F704BD
:100AA00081E00E944A058BE39FE10197F1F70895E9
:100AB000CF93DF93823029F49091710198609093E5
:100AC0007101809375011092760180E48093770123
:100AD00080E18093780180E58093790161E08091E5
:100AE00066010E940D01809167018F3F19F061E05E
:100AF0000E940D0161E0809168010E940D01C2E633
:100B0000D1E09E01225631408091710184FD0BC0DD
:100B100084E090E021962817390744F461E08E8143
:100B20000E940D01EECF88E090E0F4CF8BE39DE0D2
:100B30000197F1F760E0809166010E94DF0060E0BC
:100B4000809168010E94DF00809167018F3F19F05A
:100B500060E00E94DF008091710184FD34C063E099
:100B600082E691E00E94CA04CBE4D6E4CE0101976C
:100B7000F1F763E082E691E00E94CA042197F1F761
:100B800063E082E691E00E94CA0483E592E0019767
:100B9000F1F762E082E691E00E94CA04809171015F
:100BA00080620E944A0584E0809372018CE00E947A
:100BB0004A050E94500582E08093730186E0DF9130
:100BC000CF910C944A0580620E944A058BE496E41A
:100BD0000197F1F78091710180620E944A0583E5D7
:100BE00092E00197F1F78091710180620E944A05BD
:100BF000D5CF90917501691710F06FEF690FE62F4F
:100C0000F0E0EE59FE4F9489890F80680C944A05F4
:100C100041E00E94F70481E090E00895CF92DF92D6
:100C2000EF92FF926C01990FEE08FF08F7FE16C0D5
:100C300041E06DE282E691E00E94F70466277727A3
:100C4000CB016C197D098E099F094AE00E94590465
:100C50000196FF90EF90DF90CF9008954AE0C70192
:100C6000B601FF90EF90DF90CF900C9459048091E3
:100C70000401909105018130910589F01CF4892BC4
:100C800039F008958230910561F1039709F04CC065
:100C900081E090E0909305018093040108950E9403
:100CA000500583E191E00E94A70460E089E00E9482
:100CB000F90580910201909103010E940E0661E006
:100CC00080E00E94F9058CE191E00E94A70461E0B8
:100CD00088E00E94F90580910001909101010C9437
:100CE0000E060E94500584E291E00E94A70460E095
:100CF00089E00E94F90580910201909103010E9410
:100D00000E0661E080E00E94F9058DE291E00E940C
:100D1000A70461E088E00E94F905809100019091AC
:100D200001010E940E06B4CF08951F920F920FB6D4
:100D30000F9211242F933F938F939F93AF93BF9361
:100D40008091490190914A01A0914B01B0914C01D1
:100D50003091480123E0230F2D3758F50196A11D4E
:100D6000B11D209348018093490190934A01A093BB
:100D70004B01B0934C0180914D0190914E01A09197
:100D80004F01B09150010196A11DB11D80934D01FD
:100D900090934E01A0934F01B0935001BF91AF913A
:100DA0009F918F913F912F910F900FBE0F901F90A9
:100DB000189526E8230F0296A11DB11DD2CF1F92D0
:100DC0000F920FB60F9211242F933F934F935F937F
:100DD0006F937F938F939F93AF93BF93EF93FF9303
:100DE0008091560190915701A0915801B0915901FD
:100DF000892B8A2B8B2BD1F190915101E0915201DB
:100E0000F0915301808189278083809156019091D0
:100E10005701A0915801B0915901181619061A06E8
:100E20001B069CF48091560190915701A0915801A6
:100E3000B09159010197A109B1098093560190938E
:100E40005701A0935801B0935901FF91EF91BF91C1
:100E5000AF919F918F917F916F915F914F913F9152
:100E60002F910F900FBE0F901F9018958091060143
:100E7000E2ECF0E0E4919FEF90930601E13051F055
:100E800030F0E23069F060E00E94DF00DECF1092C7
:100E90006E00F9CF90916F009D7F90936F00F3CF1C
:100EA000909170009D7F9093700091E09093B000BE
:100EB0009091B100987F94609093B1001092B3002C
:100EC000E2CF789484B5826084BD84B5816084BDAE
:100ED00085B5826085BD85B5816085BD80916E00D8
:100EE000816080936E001092810080918100826009
:100EF0008093810080918100816080938100809146
:100F000080008160809380008091B1008460809334
:100F1000B1008091B00081608093B00080917A0030
:100F2000846080937A0080917A00826080937A0056
:100F300080917A00816080937A0080917A00806845
:100F400080937A001092C10060E087E00E940D015A
:100F500060E086E00E940D0161E088E00E940D01E2
:100F600082E00E94580585E391E00E94A70460EDAD
:100F700077E080E090E00E94C1030E945005C0E04D
:100F8000D0E00CE211E08FE0E82EF12C0E94370651
:100F900087E00E94B6000197B9F586E00E94B6008E
:100FA0000197C1F50E943D040E94250486E00E943D
:100FB000B600019749F487E00E94B600019769F5F1
:100FC0000E9425040E943D0489E00E94B60001971A
:100FD00059F48091040190910501019690930501C7
:100FE000809304010E9437068AE00E94B6000197B0
:100FF00059F480910401909105018130910581F0AF
:101000000297D1F00E943706209709F4BFCF0E94C3
:101010000000BCCF0E943D04C9CF0E942504D4CF5C
:101020008091020190910301863991059CF4059607
:10103000909303018093020180910001909101013E
:10104000883E23E092075CF44996909301018093D7
:101050000001D8CFF0920301E0920201EDCF10938E
:10106000010100930001CECF609102017091030154
:10107000072E000C880B990B0E941E099B01AC01E6
:101080006AE979E989E99FE30E9474080E94E60809
:1010900070934701609346019B01220F331FC901E2
:1010A000860F971F9093450180934401E2E6F1E09B
:1010B000138212828BE091E0918380838CE08483A1
:1010C0008FEF85838BE0868385E0878384E080874C
:1010D00083E0818782E082871386148615861686D0
:1010E000178681E00C9458050E9488080C947009BA
:1010F0000E94690958F00E94620940F029F45F3F9C
:1011000029F00C94590951110C94A4090C945F090D
:101110000E94810968F39923B1F3552391F3951B3C
:10112000550BBB27AA2762177307840738F09F5F08
:101130005F4F220F331F441FAA1FA9F335D00E2E75
:101140003AF0E0E832D091505040E695001CCAF7E2
:101150002BD0FE2F29D0660F771F881FBB1F2617A5
:1011600037074807AB07B0E809F0BB0B802DBF017C
:10117000FF2793585F4F3AF09E3F510578F00C944B
:1011800059090C94A4095F3FE4F3983ED4F3869583
:1011900077956795B795F7959F5FC9F7880F911D6C
:1011A0009695879597F90895E1E0660F771F881F58
:1011B000BB1F621773078407BA0720F0621B730B0B
:1011C000840BBA0BEE1F88F7E09508950E94ED0896
:1011D0006894B1110C94A40908950E94890988F0BB
:1011E0009F5798F0B92F9927B751B0F0E1F0660FEB
:1011F000771F881F991F1AF0BA95C9F714C0B1302C
:1012000091F00E94A309B1E008950C94A309672FFF
:10121000782F8827B85F39F0B93FCCF3869577955A
:101220006795B395D9F73EF4909580957095619543
:101230007F4F8F4F9F4F0895E89409C097FB3EF46E
:1012400090958095709561957F4F8F4F9F4F992313
:10125000A9F0F92F96E9BB279395F6958795779591
:101260006795B795F111F8CFFAF4BB0F11F460FF51
:101270001BC06F5F7F4F8F4F9F4F16C0882311F0A9
:1012800096E911C0772321F09EE8872F762F05C0BD
:10129000662371F096E8862F70E060E02AF09A9558
:1012A000660F771F881FDAF7880F9695879597F94D
:1012B000089597F99F6780E870E060E008959FEFD8
:1012C00080EC089500240A941616170618060906DD
:1012D000089500240A9412161306140605060895AC
:1012E000092E0394000C11F4882352F0BB0F40F434
:1012F000BF2B11F460FF04C06F5F7F4F8F4F9F4F74
:10130000089557FD9058440F551F59F05F3F71F0F5
:101310004795880F97FB991F61F09F3F79F087955C
:101320000895121613061406551FF2CF4695F1DFE5
:1013300008C0161617061806991FF1CF8695710575
:10134000610508940895E894BB2766277727CB01A9
:1013500097F90895A1E21A2EAA1BBB1BFD010DC02F
:10136000AA1FBB1FEE1FFF1FA217B307E407F50755
:1013700020F0A21BB30BE40BF50B661F771F881F31
:10138000991F1A9469F760957095809590959B01C7
:10139000AC01BD01CF010895052E97FB1EF400940A
:1013A0000E94E30957FD07D00E94AA0907FC03D059
:1013B0004EF40C94E30950954095309521953F4F9C
:1013C0004F4F5F4F089590958095709561957F4F31
:1013D0008F4F9F4F08950E94FC09A59F900DB49FC9
:1013E000900DA49F800D911D11240895EE0FFF1FF5
:1013F0000590F491E02D0994A29FB001B39FC00124
:10140000A39F700D811D1124911DB29F700D811D30
:101410001124911D0895F894FFCF58020F00010088
:10142000FF000000000806F403220421043E53706C
:101430006565643A200020546F6E653A20002053A1
:10144000706565643A20003E546F6E653A2000482E
:0E145000656C6C6F2C20576F726C642100006D
:107E0000112484B714BE81FFF0D085E080938100F7
:107E100082E08093C00088E18093C10086E0809377
:107E2000C20080E18093C4008EE0C9D0259A86E02C
:107E300020E33CEF91E0309385002093840096BBD3
:107E4000B09BFECF1D9AA8958150A9F7CC24DD24C4
:107E500088248394B5E0AB2EA1E19A2EF3E0BF2EE7
:107E6000A2D0813461F49FD0082FAFD0023811F036
:107E7000013811F484E001C083E08DD089C08234E0
:107E800011F484E103C0853419F485E0A6D080C0E4
:107E9000853579F488D0E82EFF2485D0082F10E0AE
:107EA000102F00270E291F29000F111F8ED06801E7
:107EB0006FC0863521F484E090D080E0DECF843638
:107EC00009F040C070D06FD0082F6DD080E0C81688
:107ED00080E7D80618F4F601B7BEE895C0E0D1E017
:107EE00062D089930C17E1F7F0E0CF16F0E7DF06D8
:107EF00018F0F601B7BEE89568D007B600FCFDCFD4
:107F0000A601A0E0B1E02C9130E011968C91119780
:107F100090E0982F8827822B932B1296FA010C0160
:107F200087BEE89511244E5F5F4FF1E0A038BF0790
:107F300051F7F601A7BEE89507B600FCFDCF97BE46
:107F4000E89526C08437B1F42ED02DD0F82E2BD052
:107F50003CD0F601EF2C8F010F5F1F4F84911BD097
:107F6000EA94F801C1F70894C11CD11CFA94CF0C13
:107F7000D11C0EC0853739F428D08EE10CD085E9AC
:107F80000AD08FE07ACF813511F488E018D01DD067
:107F900080E101D065CF982F8091C00085FFFCCF94
:107FA0009093C60008958091C00087FFFCCF809118
:107FB000C00084FD01C0A8958091C6000895E0E648
:107FC000F0E098E1908380830895EDDF803219F02E
:107FD00088E0F5DFFFCF84E1DECF1F93182FE3DFCA
:107FE0001150E9F7F2DF1F91089580E0E8DFEE27F6
:047FF000FF270994CA
:027FFE00040479
:00000001FF
